:020000040800F2
:1000000098060020B5010008090E00084D0A0008F6
:10001000050E0008C9020008E90F000800000000F2
:10002000000000000000000000000000110E0008A9
:10003000CD020008000000000D0E0008E10F0008CE
:10004000CF010008CF010008CF010008CF01000850
:10005000CF010008CF010008CF010008CF01000840
:10006000CF010008CF010008CF010008CF01000830
:10007000CF010008CF010008CF010008CF01000820
:10008000CF010008CF010008CF010008CF01000810
:10009000CF010008CF010008CF010008CF01000800
:1000A000CF010008CF010008CF010008CF010008F0
:1000B000CF010008CF010008CF010008CF010008E0
:1000C000CF010008CF010008CF010008CF010008D0
:1000D000CF010008CF010008CF010008CF010008C0
:1000E000CF010008CF010008CF01000800F002F89E
:1000F00000F050F814A696E8000CB244B344DA4578
:1001000001D100F047F8BAE80F000FA696E83000DA
:10011000A5EB040504EB0607AAEB0704A7F101070A
:100120004FEA15154FEA3414A4F10104AC4201D38F
:1001300000F030F813F0010F18BFFB1A43F0010371
:1001400000F001F8DBE71847D40F0000F40F0000BF
:10015000103A24BF78C878C1FAD8520724BF30C8F3
:1001600030C144BF04680C60704700007047000055
:100170000023002400250026103A28BF78C1FBD8B0
:10018000520728BF30C148BF0B6070471FB51FBD65
:1001900010B510BD00F05DF81146FFF7F7FF00F055
:1001A00025FF00F07BF803B4FFF7F2FF03BC00F07B
:1001B00083F800000948804709480047FEE7FEE74A
:1001C000FEE7FEE7FEE7FEE7FEE7FEE7FEE7FEE707
:1001D00004480549054A064B70470000E50F000832
:1001E000ED000008980000209806002098020020EA
:1001F0009802002040EA010310B59B070FD1042AA2
:100200000DD310C808C9121F9C42F8D020BA19BAE1
:10021000884201D9012010BD4FF0FF3010BD1AB146
:10022000D30703D0521C07E0002010BD10F8013B9B
:1002300011F8014B1B1B07D110F8013B11F8014BC2
:100240001B1B01D1921EF1D1184610BD704770479B
:100250007047754600F02CF8AE46050069465346D7
:1002600020F00700854618B020B5FFF7B1FFBDE8C4
:1002700020404FF000064FF000074FF000084FF00D
:10028000000BAC46ACE8C009ACE8C009ACE8C0095A
:10029000ACE8C00921F007018D46704710B504464F
:1002A000AFF300802046BDE81040FFF77CBF0000A0
:1002B000004870471000002001491820ABBEFEE73F
:1002C0002600020070470000FEE7000070470000B3
:1002D000B0B5044600F01CF8054640F20000C2F23A
:1002E00000000078611C18BF044400BF00F010F843
:1002F000401BA042FAD3B0BD8068084018BF01205F
:1003000070470000002A08BF09040161704700001F
:1003100040F29400C2F200000068704740F2000012
:1003200040F29401C2F20000C2F2000100780A68B3
:10033000104408607047000080B542F20000C4F22B
:100340000200016841F010010160032000F07AF81A
:100350000F2000F005F800F027F8002080BD000015
:1003600070B540F20006C2F2000640F20801327891
:10037000C2F200014FF47A730968B3FBF2F204464B
:10038000B1FBF2F1084600F04BFB0F2C4FF00105DA
:1003900008D838B94FF0FF3021460022002500F080
:1003A00025F87460284670BD82B041F21800C4F28E
:1003B00002000168022241F001010160016801F0C0
:1003C000010101910199416841F08051416040680B
:1003D00000F08050009000980420C4F201000168F1
:1003E00062F31A61016002B07047000010B54EF66A
:1003F0000C5CCEF2000CDCF80030C3F3022E8EF061
:100400000704042C28BF0424BEF103034FF0FF3E71
:100410000EFA04F438BF0023A14399400EFA03F307
:100420009A43114300F00F0200F160430901043ABE
:1004300003F564436244002848BF02F10C031970BD
:1004400010BD00004EF60C51CEF200010A684FF6C6
:10045000FF031A4060F30A2242F0806040F0FD7012
:1004600008607047002804BF012070472DE9F04361
:1004700081B042F20008C4F202080446D8F8000035
:100480000D4600F0070081420CD9D8F8000020F09A
:1004900007002843C8F80000D8F8000000F0070063
:1004A000A8426CD1206841F204098107C4F2020914
:1004B00017D5410705D5D9F8001041F4E061C9F816
:1004C0000010010705D5D9F8001041F46051C9F8B2
:1004D0000010D9F80010A26821F0F0011143C9F80A
:1004E0000010C00742D1D8F8000000F00700854294
:1004F0000CD2D8F8000020F007002843C8F800000C
:10050000D8F8000000F00700A84238D12068410761
:1005100007D5D9F80010E26821F4E0611143C9F869
:100520000010000708D5D9F80000216920F46050B8
:1005300040EAC100C9F80000D9F8002002F00C0020
:10054000082841F20020C0F27A004DD141F20A138E
:10055000C2F38341C0F60003595CD20338D440F69D
:100560000010C0F23D0048433EE000BF606859F80B
:10057000041C022808D0012826D1890306D40120B2
:1005800001B0BDE8F08300BF8901F8D5D9F80010AB
:1005900021F003010843C9F80000FFF7B9FE064641
:1005A00041F28837D9F80000616800F00C00B0EB28
:1005B000810F98D0FFF7ACFE801BB842F2D9032020
:1005C00001B0BDE8F08300BF8907D8D5DEE700BFE2
:1005D000D9F8002041F20813C2F34042C0F60003EC
:1005E0009A5C4843B0FBF2F0D9F8001041F2F802EF
:1005F000C1F30311C0F60002515C40F2080220FA78
:1006000001F140F20400C2F200000068C2F20002F0
:100610001160FFF7A5FE002001B0BDE8F0830000E7
:10062000002804BF012070472DE9F04182B0044644
:10063000007841F20006C007C4F202060CD07068D0
:1006400000F00C00042840F081803068800303D55E
:100650006068002800F04681207880071BD570680C
:1006600010F00C0F09D0706800F00C00082840F062
:1006700087807068C00300F183803068800703D5ED
:100680002069012840F02E813068616920F0F8006F
:1006900040EAC10030602078000713D4207840077A
:1006A0002CD4E569002D00F01881706800F00C0072
:1006B000082840F0A780012D40F00481012002B0FD
:1006C000BDE8F081A069002800F084800020C4F219
:1006D00042200121C0F88014FFF71AFE054600BF32
:1006E000706A800700F1B280FFF712FE401B0228FB
:1006F000F6D9032002B0BDE8F08100BFF0695FEADF
:10070000C00808D4F06940F08050F061F06900F052
:1007100080500090009847F20007C4F20007386844
:10072000C00549D4386840F480703860FFF7F0FDA8
:10073000054600BF3868C0053ED4FFF7E9FD401B01
:100740006428F7D9032002B0BDE8F081706800F09A
:100750000C00082803D17068C0033FF576AF6168CC
:100760003068002900F00C81B1F5A02F00F0008165
:10077000B1F5803F40F01A8140F480301CE100BFA9
:100780002069002840F20000C4F2422000F0888076
:1007900001210160FFF7BCFD054600BF30688007FE
:1007A0003FF572AFFFF7B4FD401B0228F6D90320D6
:1007B00002B0BDE8F08100BFE168306A002900F0B6
:1007C0009D80052900F09280012940F0AF8040F023
:1007D0000100B1E00020C4F242200021C0F88014E2
:1007E000FFF796FD054600BF706A80077FF556AF9C
:1007F000FFF78EFD401B0228F6D9032002B0BDE8AA
:10080000F08100BF0027C4F2422700203866FFF7BE
:100810007FFD022D05460DD13068800140F1DE805C
:10082000FFF776FD401B02284FF00300F4D902B019
:10083000BDE8F081306880014FD5FFF769FD401BAE
:1008400002284FF00300F5D9F1E700BF40F208009D
:10085000C2F20000006844F6D351C1F26201A0FB6D
:100860000101480A019000BF00BF0198411E002805
:1008700001913FF413AF00BF0198411E0028019180
:100880003FF40CAF00BF0198411E002801913FF4D6
:1008900005AF00BF0198411E00280191E4D1FDE69B
:1008A00000210160FFF734FD054600BF3068800776
:1008B0007FF5F1AEFFF72CFD401B02284FF003003F
:1008C000F4D9B4E77068216A00F480328A4209D111
:1008D000616A00F47010884204D1002002B0BDE8C3
:1008E000F08100BF012002B0BDE8F08140F00400BB
:1008F0003062306A40F001001EE000BF20F00100CD
:100900003062306A20F004003062FFF701FD0546D6
:1009100041F28837306A800720D5FFF7F9FC401B89
:10092000B8424FF00300F5D981E700BF20F0010085
:100930003062306A20F004003062FFF7E9FC0546BF
:1009400041F28837306A800708D4FFF7E1FC401B8A
:10095000B842F7D9032002B0BDE8F081B8F1000F2A
:100960003FF59FAEF06920F08050F06199E600BF3E
:1009700040F480203060306840F480301CE000BFDC
:1009800020F480303060306820F480203060FFF741
:10099000BFFC0546306880037FF55EAEFFF7B8FC0C
:1009A000401B64284FF00300F4D940E720F4803066
:1009B0003060306820F480203060FFF7A9FC0546E5
:1009C000306880033FF548AEFFF7A2FC401B642867
:1009D000F6D9032002B0BDE8F08100BF206AB0F56F
:1009E000803F05D17168A26821F400311143716024
:1009F0007168626A21F47411114308437060012028
:100A00003866FFF785FC0446306880013FF565AF26
:100A1000FFF77EFC001B02284FF00300F4D906E725
:100A2000411E0020B0EB116F1CBF012070474EF239
:100A30001002CEF2000251604EF62351CEF20001B8
:100A4000F0230B700721906011607047FEE70000F3
:100A500070B540F60004C4F20104204610210122C2
:100A6000FFF750FC2046202100220025FFF74AFC1A
:100A700004F58066304601210022FFF743FC0A207E
:100A8000FFF726FC304601210122FFF73BFC322014
:100A9000FFF71EFC204610210022FFF733FC422006
:100AA00000F0B8F9002000F0B5F906462046102104
:100AB0000122FFF727FC122E40F0CC8020461021A7
:100AC0000022FFF71FFC812000F0A4F9002000F0B5
:100AD000A1F92046102101220125FFF713FC0A206D
:100AE000FFF7F6FB204610210022FFF70BFC8120C8
:100AF00000F090F9802000F08DF9204610210122AD
:100B0000FFF700FC0A20FFF7E3FB2046102100223C
:100B1000FFF7F8FB812000F07DF9812000F07AF9E1
:100B2000204610210122FFF7EDFB0A20FFF7D0FB42
:100B3000204610210022FFF7E5FB862000F06AF92D
:100B40006C2000F067F9204610210122FFF7DAFB44
:100B5000204610210022FFF7D5FB872000F05AF92C
:100B6000402000F057F9204610210122FFF7CAFB70
:100B7000204610210022FFF7C5FB882000F04AF92B
:100B8000002000F047F9204610210122FFF7BAFBB0
:100B9000204610210022FFF7B5FB9D2000F03AF916
:100BA000722000F037F9204610210122FFF7AAFB3E
:100BB000204610210022FFF7A5FB9E2000F02AF915
:100BC000702000F027F9204610210122FFF79AFB40
:100BD000204610210022FFF795FBB92000F01AF9FA
:100BE000122000F017F9204610210122FFF78AFB9E
:100BF000204610210022FFF785FB8E2000F00AF925
:100C0000002000F007F9204610210122FFF77AFBAF
:100C1000204610210022FFF775FB8F2000F0FAF824
:100C2000002000F0F7F8204610210122FFF76AFBB0
:100C3000204610210022FFF765FB922000F0EAF821
:100C4000FF2000F0E7F8204610210122FFF75AFBB1
:100C500000F08AF8284670BD2DE9F04381B040F6D7
:100C60000004C4F201040F468046204610210022F1
:100C70004FF00009FFF746FB122000F0CBF80020F0
:100C800000F0C8F80646204610210122FFF73AFB83
:100C9000700664D52046102100224FF00009FFF7AE
:100CA00031FBB0064ED4132000F0B4F8002000F061
:100CB000B1F80546204610210122FFF723FB20460C
:100CC00010210022FFF71EFB102000F0A3F80020E7
:100CD00000F0A0F80646204610210122FFF712FB83
:100CE000204610210022BD4238BF2F46B946FFF7EB
:100CF00009FB8D2000F08EF8304600F08BF820467E
:100D000010210122FFF7FEFABFB1A8F101074D46FD
:100D1000204610210022FFF7F5FA002000F07AF8B3
:100D2000002000F077F80646204610210122FFF748
:100D3000E9FA013D07F8016FEAD1204610210022AF
:100D4000FFF7E0FA922000F065F8FF2000F062F86B
:100D5000204610210122FFF7D5FA00F005F8484699
:100D600001B0BDE8F083000010B540F60004C4F205
:100D70000104204610210022FFF7C4FA812000F070
:100D800049F8812000F046F8204610210122FFF7A3
:100D9000B9FA0520FFF79CFA204610210022FFF740
:100DA000B1FA8D2000F036F8002000F033F820462C
:100DB00010210122FFF7A6FA204610210022FFF79A
:100DC000A1FA922000F026F8FF2000F023F8204638
:100DD00010210122FFF796FA204610210022FFF78A
:100DE00091FA812000F016F8852000F013F82046D3
:100DF00010210122FFF786FA0520BDE81040FFF719
:100E000067BA0000FEE70000FEE700007047000040
:100E1000704700002DE9F04F81B040F60004C4F2A5
:100E200001040646C20920464021FFF76BFA20461E
:100E300020210122FFF766FA20468021FFF75CFAA5
:100E40000090204620210022FFF75CFAC6F38012B2
:100E500020464021FFF756FA204620210122FFF7C5
:100E600051FA20468021FFF747FA8146204620218B
:100E70000022FFF747FAC6F3401220464021FFF751
:100E800041FA204620210122FFF73CFA204680212A
:100E9000FFF732FA8246204620210022FFF732FA7D
:100EA000C6F3001220464021FFF72CFA20462021ED
:100EB0000122FFF727FA20468021FFF71DFA83461B
:100EC000204620210022FFF71DFAC6F3C00220466B
:100ED0004021FFF717FA204620210122FFF712FADE
:100EE00020468021FFF708FA0546204620210022EF
:100EF000FFF708FAC6F3800220464021FFF702FA06
:100F0000204620210122FFF7FDF920468021FFF72E
:100F1000F3F90746204620210022FFF7F3F9C6F334
:100F2000400220464021FFF7EDF920462021012212
:100F3000FFF7E8F920468021FFF7DEF980462046DA
:100F400020210022FFF7DEF906F0010220464021B1
:100F5000FFF7D8F96A1E009DA9F10106B6FA86F6D8
:100F6000013D791EAAF101077609B5FA85F5ABF1C5
:100F70000103B7FA87F7B6016D09B3FA83F37F0966
:100F800046EAC516B2FA82F25B0946EA4717A8F1AB
:100F90000100B1FA81F1520947EA0313B0FA80F077
:100FA000490943EAC202400942EA810141EA400597
:100FB000204620210122FFF7A5F920468021FFF7D6
:100FC0009BF90138B0FA80F0400905432046202102
:100FD0000022FFF797F9E8B201B0BDE8F08F0000FA
:100FE000FFF79CB970470000FEE7000090B040F6A4
:100FF0000004C4F20104FFF79FF900250120CDE9A8
:101000000B55CDE9095506900A904FF4E0104FF4C6
:10101000803102260F9006A80595CDE90355CDE94C
:101020000155CDE90715CDE90D61FFF7F9FA48B192
:10103000EFF3108072B600BF204604210022FFF7B4
:1010400061F9F9E70F20CDE901064FF48060CDE9A1
:10105000040501A802210395FFF704FA40B1EFF35C
:10106000108072B6204604210022FFF74BF9F9E701
:10107000204604210022FFF745F9FFF7E9FC40F282
:101080007007C2F200077D1C18A6387010E000BF80
:10109000204604210022FFF735F94FF47A70FFF75C
:1010A00017F9FFF7D5FC38700A20FFF711F93878E7
:1010B0000028EDD028462021FFF7CEFD0828F3D1E7
:1010C000284631460822FFF795F80028ECD1204643
:1010D00004210122FFF716F94FF47A70FFF7F8F8B0
:1010E000204604210022FFF70DF9DDE742414B497C
:1010F000535F4F4B000000000000000000000000A4
:101100000102030406070809010202030405060799
:1011100008090A0B0C0D0E0F1010000040110008FA
:1011200000000020100000005001000850110008CD
:101130001000002088060000700100080000000078
:10114000010000001000000000127A000000000002
:04000005080000ED02
:00000001FF
