:020000040800F2
:1000000078060020B50100088D100008150C0008C6
:1000100089100008710200080913000800000000A0
:100020000000000000000000000000009510000823
:100030007502000800000000911000086512000819
:10004000CF010008CF010008CF010008CF01000850
:10005000CF010008CF010008CF010008CF01000840
:10006000CF010008CF010008CF010008CF01000830
:10007000CF010008CF010008CF010008CF01000820
:10008000CF010008CF010008CF010008CF01000810
:10009000CF010008CF010008CF010008CF01000800
:1000A000CF010008CF010008CF010008CF010008F0
:1000B000CF010008CF010008CF010008CF010008E0
:1000C000CF010008CF010008CF010008CF010008D0
:1000D000CF010008CF010008CF010008CF010008C0
:1000E000CF010008CF010008CF01000800F002F89E
:1000F00000F050F814A696E8000CB244B344DA4578
:1001000001D100F047F8BAE80F000FA696E83000DA
:10011000A5EB040504EB0607AAEB0704A7F101070A
:100120004FEA15154FEA3414A4F10104AC4201D38F
:1001300000F030F813F0010F18BFFB1A43F0010371
:1001400000F001F8DBE7184700140000201400005D
:10015000103A24BF78C878C1FAD8520724BF30C8F3
:1001600030C144BF04680C60704700007047000055
:100170000023002400250026103A28BF78C1FBD8B0
:10018000520728BF30C148BF0B6070471FB51FBD65
:1001900010B510BD00F031F81146FFF7F7FF01F080
:1001A000B5F800F04FF803B4FFF7F2FF03BC00F01E
:1001B00057F800000948804709480047FEE7FEE776
:1001C000FEE7FEE7FEE7FEE7FEE7FEE7FEE7FEE707
:1001D00004480549054A064B70470000051300080E
:1001E000ED0000087800002078060020780200204A
:1001F00078020020704770477047754600F02CF871
:10020000AE4605006946534620F00700854618B003
:1002100020B5FFF7DDFFBDE820404FF000064FF0AE
:1002200000074FF000084FF0000BAC46ACE8C009E7
:10023000ACE8C009ACE8C009ACE8C00921F007018E
:100240008D46704710B50446AFF300802046BDE8E8
:100250001040FFF7A8BF00000048704710000020C2
:1002600001491820ABBEFEE72600020070470000DF
:10027000FEE7000070470000B0B5044600F02CF91E
:10028000054640F20000C2F200000078611C18BF71
:10029000044400BF00F020F9401BA042FAD3B0BDD7
:1002A0002DE9F04F82B00E68002E00F0FD8041F283
:1002B0000042C4F20102042340F2004E904208BF03
:1002C00003234FF6FF7CC4F2010E009300240123A8
:1002D000C1F2100C4FF0000A4FF000094BE000BFD4
:1002E00041F20002C4F20102009F904208BF0227BF
:1002F00004F00C030F229A402BEA020207FA03F3E0
:100300004FEA9A051A4346F825204E6840F20C45FC
:10031000F202DEF8082054BF22EA080242EA08028C
:10032000C4F20105CEF808202A68B30254BF22EABD
:10033000080242EA08022A60B303DEF8042054BF30
:1003400022EA080242EA0802F303CEF80420DEF8AB
:1003500000204FF0010354BF22EA080242EA0802DB
:10036000CEF800200E680AF1010A36FA0AF204F10A
:10037000040400F0998003FA0AFB16EA0B08F1D096
:100380004E68664512DC122E56D8DFE806F0350BB3
:100390004D49555555555555555555555555554531
:1003A000510000BFD1F80C9046E000BF4FF6FF723D
:1003B000C1F2210296420FDC0022C1F211029642E4
:1003C0001AD00022C1F21202964215D00022C1F2C8
:1003D0002102964210D02FE00022C1F22202964262
:1003E0000AD00022C1F23102964205D00022C1F2A9
:1003F0003202964220D100BF8A684AB1012A14BF56
:10040000C0F814B0C0F810B04FF0080914E000BFF5
:100410004FF0040910E000BFCA6802F104090BE0C4
:100420004FF0000908E000BFCA6802F1080903E0C4
:10043000CA6802F10C0900BF02462646B8F5807F63
:1004400024BF0432203E17680F25B54027EA050572
:1004500009FA06F635431560CA79D2067FF582AFF0
:1004600041F21803C4F202031A68AEF57E7642F038
:1004700001021A601A6802F001020192019A2AF040
:10048000030256F802B040F60002C4F201029042A4
:1004900008D040F60042C4F2010290427FF420AF3F
:1004A000012725E7002723E702B0BDE8F08F000011
:1004B0008068084018BF012070470000C26802EA47
:1004C0000103914341EA034101617047002A08BFDB
:1004D000090401617047000040F27400C2F200009C
:1004E0000068704740F2000040F27401C2F2000060
:1004F000C2F2000100780A681044086070470000EA
:1005000080B542F20000C4F20200016841F010011F
:100510000160032000F07AF80F2000F005F800F0E9
:1005200027F8002080BD000070B540F20006C2F23E
:10053000000640F208013278C2F200014FF47A73EB
:100540000968B3FBF2F20446B1FBF2F1084600F091
:100550004BFB0F2C4FF0010508D838B94FF0FF3096
:1005600021460022002500F025F87460284670BD61
:1005700082B041F21800C4F202000168022241F088
:1005800001010160016801F00101019101994168D7
:1005900041F080514160406800F080500090009828
:1005A0000420C4F20100016862F31A61016002B024
:1005B0007047000010B54EF60C5CCEF2000CDCF873
:1005C0000030C3F3022E8EF00704042C28BF04244D
:1005D000BEF103034FF0FF3E0EFA04F438BF0023D0
:1005E000A14399400EFA03F39A43114300F00F021E
:1005F00000F160430901043A03F5644362440028B2
:1006000048BF02F10C03197010BD00004EF60C51EA
:10061000CEF200010A684FF6FF031A4060F30A2287
:1006200042F0806040F0FD7008607047002804BF11
:10063000012070472DE9F04381B042F20008C4F276
:1006400002080446D8F800000D4600F00700814279
:100650000CD9D8F8000020F007002843C8F80000A3
:10066000D8F8000000F00700A8426CD1206841F2E1
:1006700004098107C4F2020917D5410705D5D9F845
:10068000001041F4E061C9F80010010705D5D9F860
:10069000001041F46051C9F80010D9F80010A268A8
:1006A00021F0F0011143C9F80010C00742D1D8F879
:1006B000000000F0070085420CD2D8F8000020F0BE
:1006C00007002843C8F80000D8F8000000F0070031
:1006D000A84238D12068410707D5D9F80010E26850
:1006E00021F4E0611143C9F80010000708D5D9F8DA
:1006F0000000216920F4605040EAC100C9F8000000
:10070000D9F8002002F00C00082841F20020C0F2C5
:100710007A004DD141F23653C2F38341C0F6000353
:10072000595CD20338D440F60010C0F23D00484373
:100730003EE000BF606859F8041C022808D0012878
:1007400026D1890306D4012001B0BDE8F08300BFA3
:100750008901F8D5D9F8001021F003010843C9F840
:100760000000FFF7B9FE064641F28837D9F80000CD
:10077000616800F00C00B0EB810F98D0FFF7ACFE81
:10078000801BB842F2D9032001B0BDE8F08300BF5E
:100790008907D8D5DEE700BFD9F8002041F23453ED
:1007A000C2F34042C0F600039A5C4843B0FBF2F04B
:1007B000D9F8001041F22452C1F30311C0F600022F
:1007C000515C40F2080220FA01F140F20400C2F24A
:1007D00000000068C2F200021160FFF7A5FE0020D1
:1007E00001B0BDE8F0830000002804BF012070477D
:1007F0002DE9F04182B00446007841F20006C007BE
:10080000C4F202060CD0706800F00C00042840F01E
:1008100081803068800303D56068002800F046813D
:10082000207880071BD5706810F00C0F09D0706815
:1008300000F00C00082840F087807068C00300F1C9
:1008400083803068800703D52069012840F02E811D
:100850003068616920F0F80040EAC100306020781B
:10086000000713D4207840072CD4E569002D00F050
:100870001881706800F00C00082840F0A780012D56
:1008800040F00481012002B0BDE8F081A069002899
:1008900000F084800020C4F242200121C0F88014BE
:1008A000FFF71AFE054600BF706A800700F1B280AC
:1008B000FFF712FE401B0228F6D9032002B0BDE864
:1008C000F08100BFF0695FEAC00808D4F06940F029
:1008D0008050F061F06900F080500090009847F27D
:1008E0000007C4F200073868C00549D4386840F4EE
:1008F00080703860FFF7F0FD054600BF3868C0051E
:100900003ED4FFF7E9FD401B6428F7D9032002B06D
:10091000BDE8F081706800F00C00082803D1706811
:10092000C0033FF576AF61683068002900F00C81A4
:10093000B1F5A02F00F00081B1F5803F40F01A81A1
:1009400040F480301CE100BF2069002840F2000024
:10095000C4F2422000F0888001210160FFF7BCFD55
:10096000054600BF306880073FF572AFFFF7B4FD62
:10097000401B0228F6D9032002B0BDE8F08100BF79
:10098000E168306A002900F09D80052900F092801E
:10099000012940F0AF8040F00100B1E00020C4F236
:1009A00042200021C0F88014FFF796FD054600BFE5
:1009B000706A80077FF556AFFFF78EFD401B022857
:1009C000F6D9032002B0BDE8F08100BF0027C4F2D1
:1009D000422700203866FFF77FFD022D05460DD126
:1009E0003068800140F1DE80FFF776FD401B022871
:1009F0004FF00300F4D902B0BDE8F0813068800107
:100A00004FD5FFF769FD401B02284FF00300F5D9D1
:100A1000F1E700BF40F20800C2F20000006844F6AF
:100A2000D351C1F26201A0FB0101480A019000BF4D
:100A300000BF0198411E002801913FF413AF00BF91
:100A40000198411E002801913FF40CAF00BF0198AE
:100A5000411E002801913FF405AF00BF0198411EDF
:100A600000280191E4D1FDE600210160FFF734FD8B
:100A7000054600BF306880077FF5F1AEFFF72CFD1B
:100A8000401B02284FF00300F4D9B4E77068216AD4
:100A900000F480328A4209D1616A00F47010884201
:100AA00004D1002002B0BDE8F08100BF012002B0F7
:100AB000BDE8F08140F004003062306A40F001008F
:100AC0001EE000BF20F001003062306A20F0040018
:100AD0003062FFF701FD054641F28837306A800732
:100AE00020D5FFF7F9FC401BB8424FF00300F5D9C1
:100AF00081E700BF20F001003062306A20F004007E
:100B00003062FFF7E9FC054641F28837306A80071A
:100B100008D4FFF7E1FC401BB842F7D9032002B02C
:100B2000BDE8F081B8F1000F3FF59FAEF06920F00D
:100B30008050F06199E600BF40F48020306030685A
:100B400040F480301CE000BF20F48030306030681A
:100B500020F480203060FFF7BFFC0546306880033A
:100B60007FF55EAEFFF7B8FC401B64284FF0030032
:100B7000F4D940E720F480303060306820F48020E1
:100B80003060FFF7A9FC0546306880033FF548AEAA
:100B9000FFF7A2FC401B6428F6D9032002B0BDE891
:100BA000F08100BF206AB0F5803F05D17168A2686E
:100BB00021F40031114371607168626A21F474118B
:100BC00011430843706001203866FFF785FC044636
:100BD000306880013FF565AFFFF77EFC001B0228FF
:100BE0004FF00300F4D906E7411E0020B0EB116F6F
:100BF0001CBF012070474EF21002CEF2000251607D
:100C00004EF62351CEF20001F0230B7007219060C5
:100C100011607047FEE7000070B540F60004C4F2B2
:100C20000104204610210122FFF750FC204620211C
:100C300000220025FFF74AFC04F5806630460121BA
:100C40000022FFF743FC0A20FFF716FB3046012184
:100C50000122FFF73BFC3220FFF70EFB204610215C
:100C60000022FFF733FC422000F016FA002000F0CB
:100C700013FA0646204610210122FFF727FC122E08
:100C800040F0DD80204610210022FFF71FFC81206C
:100C900000F002FA002000F0FFF9204610210122A6
:100CA0000125FFF713FC0A20FFF7E6FA2046102182
:100CB0000022FFF70BFC812000F0EEF9802000F00D
:100CC000EBF9204610210122FFF700FC0A20FFF774
:100CD000D3FA204610210022FFF7F8FB812000F014
:100CE000DBF9812000F0D8F9204610210122FFF71E
:100CF000EDFB0A20FFF7C0FA204610210022FFF783
:100D0000E5FB862000F0C8F96C2000F0C5F920460C
:100D100010210122FFF7DAFB204610210022FFF705
:100D2000D5FB872000F0B8F9402000F0B5F9204647
:100D300010210122FFF7CAFB204610210022FFF7F5
:100D4000C5FB882000F0A8F9002000F0A5F9204696
:100D500010210122FFF7BAFB204610210022FFF7E5
:100D6000B5FB9D2000F098F9722000F095F920461F
:100D700010210122FFF7AAFB204610210022FFF7D5
:100D8000A5FB9E2000F088F9702000F085F9204630
:100D900010210122FFF79AFB204610210022FFF7C5
:100DA00095FBB92000F078F9122000F075F9204683
:100DB00010210122FFF78AFB204610210022FFF7B5
:100DC00085FB8E2000F068F9002000F065F92046D0
:100DD00010210122FFF77AFB204610210022FFF7A5
:100DE00075FB8F2000F058F9002000F055F92046DF
:100DF00010210122FFF76AFB204610210022FFF795
:100E000065FB922000F048F9FF2000F045F92046EC
:100E100010210122FFF75AFB204610210022FFF784
:100E200055FB812000F038F9812000F035F920468B
:100E300010210122FFF74AFB0A20FFF71DFA28467E
:100E400070BD00002DE9F04140F60004C4F2010439
:100E500088460646204610210022FFF737FB8120F6
:100E600000F01AF9812000F017F920461021012224
:100E7000FFF72CFB204610210022FFF727FB8D20D7
:100E800000F00AF9002000F007F9204610210122A5
:100E9000FFF71CFBB8F1000F16D0771E454600BFC8
:100EA00017F8016F204610210022FFF70FFB80206A
:100EB00000F0F2F8304600F0EFF820461021012251
:100EC000FFF704FB013DEBD1204610210022FFF784
:100ED000FDFAA22000F0E0F8404600F0DDF82046E0
:100EE00010210122FFF7F2FA204610210022FFF71D
:100EF000EDFA922000F0D0F8FF2000F0CDF8204667
:100F000010210122FFF7E2FA204610210022FFF70C
:100F1000DDFA812000F0C0F8832000F0BDF8204603
:100F200010210122FFF7D2FAFFF7D6FA054640F664
:100F3000B83700BF204610210022FFF7C7FA122061
:100F400000F0AAF8002000F0A7F80646204610217D
:100F50000122FFF7BBFA300706D4FFF7BDFA401BAA
:100F6000B842E7D9002510E0204610210022FFF703
:100F7000ADFA922000F090F8082000F08DF820469D
:100F8000102101220125FFF7A1FA2046102100229D
:100F9000FFF79CFA812000F07FF8812000F07CF8B8
:100FA000204610210122FFF791FA2846BDE8F08182
:100FB0002DE9F04786B0002741F21800CDE904770B
:100FC000CDE90277C4F20200016840F6000941F061
:100FD000200101600168C4F2010901F020010191C2
:100FE00001990168002241F00401016001684FF499
:100FF000676A01F0040101910199016841F008015B
:10100000016000684FF4676100F0080001900198EA
:101010004846FFF75BFA09F5806420464FF201016C
:1010200000224FF20108FFF751FA02AE01254846AF
:101030003146CDE902570495FFF732F9CDE902A513
:101040004FF0020A484631460497CDF814A0FFF746
:1010500027F94FF4C070CDE902074846314604979E
:10106000FFF71EF920463146CDE90285CDE9047A25
:10107000FFF716F920463146CDE902A70497FFF79E
:101080000FF906B0BDE8F087FEE70000FEE70000BC
:1010900070470000704700002DE9F04F81B040F626
:1010A0000004C4F201040646C20920464021FFF7AD
:1010B0000DFA204620210122FFF708FA2046802160
:1010C000FFF7F6F90090204620210022FFF7FEF9F5
:1010D000C6F3801220464021FFF7F8F92046202170
:1010E0000122FFF7F3F920468021FFF7E1F981465D
:1010F000204620210022FFF7E9F9C6F340122046DE
:101100004021FFF7E3F9204620210122FFF7DEF915
:1011100020468021FFF7CCF982462046202100227C
:10112000FFF7D4F9C6F3001220464021FFF7CEF9AD
:10113000204620210122FFF7C9F920468021FFF730
:10114000B7F98346204620210022FFF7BFF9C6F3F6
:10115000C00220464021FFF7B9F920462021012294
:10116000FFF7B4F920468021FFF7A2F90546204693
:1011700020210022FFF7AAF9C6F380022046402171
:10118000FFF7A4F9204620210122FFF79FF920460E
:101190008021FFF78DF90746204620210022FFF726
:1011A00095F9C6F3400220464021FFF78FF920460B
:1011B00020210122FFF78AF920468021FFF778F9E4
:1011C0008046204620210022FFF780F906F0010228
:1011D00020464021FFF77AF96A1E009DA9F1010619
:1011E000B6FA86F6013D791EAAF101077609B5FA2D
:1011F00085F5ABF10103B7FA87F7B6016D09B3FACC
:1012000083F37F0946EAC516B2FA82F25B0946EA21
:101210004717A8F10100B1FA81F1520947EA031317
:10122000B0FA80F0490943EAC202400942EA81016A
:1012300041EA4005204620210122FFF747F92046D8
:101240008021FFF735F90138B0FA80F040090543F5
:10125000204620210022FFF739F9E8B201B0BDE8AD
:10126000F08F0000FFF73EB9B0B590B00024012028
:10127000CDE90B44CDE9094406900A904FF4E01003
:101280004FF4803102250F9006A80594CDE9034460
:10129000CDE90144CDE90714CDE90D51FFF7A4FADA
:1012A00080B140F60044C4F20104EFF3108072B63E
:1012B00020464FF40051FFF701F94FF49670FEF706
:1012C000DBFFF5E70F20CDE901054FF48060CDE9A4
:1012D000040401A802210394FFF7A8F980B140F6A5
:1012E0000044C4F20104EFF3108072B620464FF4BC
:1012F0000051FFF7E3F84FF49670FEF7BDFFF5E7F6
:1013000010B0B0BD70470000FEE7000040F600449A
:10131000C4F20104FFF7F4F8FFF7A6FFFFF748FE59
:1013200020464FF480510022FFF7D0F820464FF4BA
:1013300000510022FFF7CAF820464FF480410022F6
:10134000FFF7C4F820464FF400410022FFF7BEF833
:10135000FFF762FC40F270090546C2F2000989F805
:10136000000080F0010620464FF480512A46FFF726
:10137000ADF820464FF400513246FFF7A7F820465B
:101380004FF480412A46FFF7A1F820464FF4004170
:101390003246FFF79BF8A4F580650FF27C1806E053
:1013A0006420FEF769FF00BF3220FEF765FF99F861
:1013B0000000002874D020464FF480510122FFF72E
:1013C00085F820464FF400510022FFF77FF82046B1
:1013D0004FF480410122FFF779F820464FF4004195
:1013E0000022FFF773F828464FF48071FFF760F88A
:1013F0000028D9D13220FEF73FFF28464FF48071F4
:10140000FFF756F80028CFD120464FF48051002234
:10141000FFF75CF820464FF400510022FFF756F822
:1014200020464FF480410022FFF750F820464FF449
:1014300000410022FFF74AF84FF49670FEF71CFFB8
:1014400040460821FFF7FEFC074600284FF4FA66E5
:1014500020464FF480513A4608BF4FF47A76FFF7A2
:1014600035F820464FF400510122FFF72FF82046AF
:101470004FF480413A46FFF729F820464FF40041E7
:101480000122FFF723F83046FEF7F6FE28464FF418
:101490008071FFF70DF800287FF482AF0A20F3E790
:1014A00020464FF480510022FFF710F820464FF4F9
:1014B00000510122FFF70AF820464FF48041002234
:1014C000FFF704F820464FF400410122FEF7FEFF2B
:1014D0004FF47A70FEF7D0FEFFF79EFB002889F8E4
:1014E00000003FF461AF20464FF480510122FEF727
:1014F000EDFF20464FF400510022FEF7E7FF2046A3
:101500004FF480410122FEF7E1FF20464FF40041F5
:101510000022FEF7DBFF47E742414B49535F4F4B49
:1015200000000000000000000000000001020304B1
:1015300006070809010202030405060708090A0B49
:101540000C0D0E0F101000006815000800000020A0
:10155000100000005001000878150008100000205D
:101560006806000070010008010000001000000083
:0815700000127A0000000000E7
:04000005080000ED02
:00000001FF
